:1000000009C021C020C01FC01EC01DC01CC01BC015
:100010001AC019C011241FBECFE9CDBF10E0A0E661
:10002000B0E0E8E1F1E002C005900D92A036B10722
:10003000D9F710E0A0E6B0E001C01D92A036B107EC
:10004000E1F719D067C0DCCFDF93CF9300D0CDB7F5
:10005000DEB788EE93E09A83898389819A8101973C
:100060009A83898389819A81892BB9F70F900F90A0
:10007000CF91DF9108950F931F93DF93CF9300D01B
:1000800000D0CDB7DEB741E050E0A8E3B0E0E7E351
:10009000F0E068EE73E0198289818630E0F71A8219
:1000A0008A81863078F599818A81981729F189812A
:1000B0008A0102C0000F111F8A95E2F70C93298173
:1000C0008A818A0102C0000F111F8A95E2F7C801D8
:1000D0008A0102C0000F111F2A95E2F7800F80836A
:1000E0007C836B838B819C8101979C838B838B8129
:1000F0009C81892BB9F710828A818F5F8A838A81DC
:10010000863088F289818F5F89838981863008F003
:08011000C2CFC5CFF894FFCF68
:00000001FF
